{
  "contractName": "Users",
  "abi": [
    {
      "constant": false,
      "inputs": [
        {
          "internalType": "string",
          "name": "userName",
          "type": "string"
        }
      ],
      "name": "addUser",
      "outputs": [],
      "payable": false,
      "stateMutability": "nonpayable",
      "type": "function"
    },
    {
      "constant": false,
      "inputs": [
        {
          "internalType": "uint256",
          "name": "userIndex",
          "type": "uint256"
        },
        {
          "internalType": "string",
          "name": "newUserName",
          "type": "string"
        }
      ],
      "name": "updateUser",
      "outputs": [
        {
          "internalType": "bool",
          "name": "",
          "type": "bool"
        }
      ],
      "payable": false,
      "stateMutability": "nonpayable",
      "type": "function"
    },
    {
      "constant": false,
      "inputs": [
        {
          "internalType": "uint256",
          "name": "userIndex",
          "type": "uint256"
        }
      ],
      "name": "deleteUser",
      "outputs": [
        {
          "internalType": "bool",
          "name": "",
          "type": "bool"
        }
      ],
      "payable": false,
      "stateMutability": "nonpayable",
      "type": "function"
    },
    {
      "constant": true,
      "inputs": [],
      "name": "getUsers",
      "outputs": [
        {
          "internalType": "string[]",
          "name": "",
          "type": "string[]"
        }
      ],
      "payable": false,
      "stateMutability": "view",
      "type": "function"
    }
  ],
  "bytecode": "0x608060405234801561001057600080fd5b5061083e806100206000396000f3fe608060405234801561001057600080fd5b506004361061004b5760003560e01c8062ce8e3e1461005057806318b8275a1461006e57806338f148451461008a578063d85340e7146100ba575b600080fd5b6100586100ea565b6040516100659190610690565b60405180910390f35b61008860048036036100839190810190610501565b6101d3565b005b6100a4600480360361009f9190810190610542565b610215565b6040516100b191906106b2565b60405180910390f35b6100d460048036036100cf919081019061056b565b6102d5565b6040516100e191906106b2565b60405180910390f35b60606000805480602002602001604051908101604052809291908181526020016000905b828210156101ca578382906000526020600020018054600181600116156101000203166002900480601f0160208091040260200160405190810160405280929190818152602001828054600181600116156101000203166002900480156101b65780601f1061018b576101008083540402835291602001916101b6565b820191906000526020600020905b81548152906001019060200180831161019957829003601f168201915b50505050508152602001906001019061010e565b50505050905090565b6000819080600181540180825580915050906001820390600052602060002001600090919290919091509080519060200190610210929190610324565b505050565b60008160008054905011156102cb5760008290505b600160008054905003811015610298576000600182018154811061024a57fe5b906000526020600020016000828154811061026157fe5b90600052602060002001908054600181600116156101000203166002900461028a9291906103a4565b50808060010191505061022a565b5060008054806102a457fe5b6001900381819060005260206000200160006102c0919061042b565b9055600190506102d0565b600090505b919050565b60008260008054905011156103195781600084815481106102f257fe5b90600052602060002001908051906020019061030f929190610324565b506001905061031e565b600090505b92915050565b828054600181600116156101000203166002900490600052602060002090601f016020900481019282601f1061036557805160ff1916838001178555610393565b82800160010185558215610393579182015b82811115610392578251825591602001919060010190610377565b5b5090506103a09190610473565b5090565b828054600181600116156101000203166002900490600052602060002090601f016020900481019282601f106103dd578054855561041a565b8280016001018555821561041a57600052602060002091601f016020900482015b828111156104195782548255916001019190600101906103fe565b5b5090506104279190610473565b5090565b50805460018160011615610100020316600290046000825580601f106104515750610470565b601f01602090049060005260206000209081019061046f9190610473565b5b50565b61049591905b80821115610491576000816000905550600101610479565b5090565b90565b600082601f8301126104a957600080fd5b81356104bc6104b7826106fa565b6106cd565b915080825260208301602083018583830111156104d857600080fd5b6104e3838284610791565b50505092915050565b6000813590506104fb816107e4565b92915050565b60006020828403121561051357600080fd5b600082013567ffffffffffffffff81111561052d57600080fd5b61053984828501610498565b91505092915050565b60006020828403121561055457600080fd5b6000610562848285016104ec565b91505092915050565b6000806040838503121561057e57600080fd5b600061058c858286016104ec565b925050602083013567ffffffffffffffff8111156105a957600080fd5b6105b585828601610498565b9150509250929050565b60006105cb8383610657565b905092915050565b60006105de82610736565b6105e88185610759565b9350836020820285016105fa85610726565b8060005b85811015610636578484038952815161061785826105bf565b94506106228361074c565b925060208a019950506001810190506105fe565b50829750879550505050505092915050565b6106518161077b565b82525050565b600061066282610741565b61066c818561076a565b935061067c8185602086016107a0565b610685816107d3565b840191505092915050565b600060208201905081810360008301526106aa81846105d3565b905092915050565b60006020820190506106c76000830184610648565b92915050565b6000604051905081810181811067ffffffffffffffff821117156106f057600080fd5b8060405250919050565b600067ffffffffffffffff82111561071157600080fd5b601f19601f8301169050602081019050919050565b6000819050602082019050919050565b600081519050919050565b600081519050919050565b6000602082019050919050565b600082825260208201905092915050565b600082825260208201905092915050565b60008115159050919050565b6000819050919050565b82818337600083830152505050565b60005b838110156107be5780820151818401526020810190506107a3565b838111156107cd576000848401525b50505050565b6000601f19601f8301169050919050565b6107ed81610787565b81146107f857600080fd5b5056fea365627a7a72315820873b441cb2254b8816956c2cce3c95e1b35d88a746b2cd368afc68771d6d8d5a6c6578706572696d656e74616cf564736f6c63430005100040",
  "source": "//SPDX-License-Identifier: MIT\r\npragma solidity >=0.4.21 <0.7.0;\r\npragma experimental ABIEncoderV2;\r\n\r\ncontract Users {\r\n  string[] myUsers;\r\n\r\n  function addUser(string memory userName) public {\r\n    myUsers.push(userName);\r\n  }\r\n\r\n  function updateUser(uint userIndex, string memory newUserName) public returns (bool){\r\n    if(myUsers.length > userIndex) {\r\n      myUsers[userIndex] = newUserName;\r\n      return true;\r\n    }\r\n    return false;\r\n  }\r\n\r\n  function deleteUser(uint userIndex) public returns (bool) {\r\n    if(myUsers.length > userIndex){\r\n      for(uint i=userIndex; i<myUsers.length-1;i++){\r\n        myUsers[i] = myUsers[i+1];\r\n      }\r\n      myUsers.pop();\r\n      return true;\r\n    }\r\n    return false;\r\n  }\r\n\r\n  function getUsers() public view returns (string[] memory) {\r\n    return myUsers;\r\n  }\r\n}",
  "sourcePath": "C:\\GitHub\\pholio\\Blockchain\\block\\contracts\\Users.sol",
  "compiler": {
    "name": "solc",
    "version": "0.5.16+commit.9c3226ce.Emscripten.clang"
  },
  "schemaVersion": "3.4.7",
  "updatedAt": "2022-04-12T23:45:43.783Z",
  "networkType": "ethereum",
  "devdoc": {
    "methods": {}
  },
  "userdoc": {
    "methods": {}
  }
}